:1000000000000420F1040000610500006305000009
:10001000650500006705000069050000000000009C
:100020000000000000000000000000006B05000060
:100030006D050000000000006F0500007105000064
:1000400073050000730500007305000073050000D0
:1000500073050000730500007305000073050000C0
:1000600073050000730500007305000073050000B0
:1000700073050000730500007305000073050000A0
:100080007305000073050000730500007305000090
:100090007305000073050000730500007305000080
:1000A0007305000073050000730500007305000070
:1000B0007305000073050000000000000000000050
:1000C0007305000073050000730500007305000050
:1000D0007305000073050000730500007305000040
:1000E00073050000730500007305000000000000A8
:1000F0000000000073050000000000007305000010
:1001000000000000000000000000000000000000EF
:1001100000000000000000000000000000000000DF
:1001200000000000000000000000000000000000CF
:1001300000000000000000000000000000000000BF
:1001400000000000000000000000000000000000AF
:10015000000000000000000000000000000000009F
:10016000000000000000000000000000000000008F
:10017000000000000000000000000000000000007F
:10018000000000000000000000000000000000006F
:10019000000000000000000000000000000000005F
:1001A000000000000000000000000000000000004F
:1001B000000000000000000000000000000000003F
:1001C000000000000000000000000000000000002F
:1001D000000000000000000000000000000000001F
:1001E000000000000000000000000000000000000F
:1001F00000000000000000000000000000000000FF
:08020000900000000100000065
:100208000348044B834202D0034B03B1184770479D
:100218000000002000000020000000000548064BF8
:100228001B1AD90F01EBA301491002D0034B03B1EC
:100238001847704700000020000000200000000060
:1002480010B5064C237843B9FFF7DAFF044B13B116
:100258000448AFF300800123237010BD0000002084
:10026800000000000808000008B5044B1BB1044951
:100278000448AFF30080BDE80840CFE70000000065
:100288000400002008080000A3F5803A704700BF6A
:10029800154B002B08BF114B9D46FFF7F5FF0021BA
:1002A8008B460F461148124A121A00F05FF90C4BA0
:1002B800002B00D098470B4B002B00D0984700200C
:1002C800002104000D000B4800F0D8F900F0A0F957
:1002D8002000290000F010F800F0C2F90000080022
:1002E80000000000000000000000042000000020C2
:1002F800EC02002091060000F0B525482549DFF8FA
:1003080098E04FF0A04C032300224FF400554FF41F
:100318008074CCF8343783B0CCF80C551746C0F845
:1003280020371646C0F80C45CCF80855C0F80845E3
:100338000196019B994205D9019B01330193019BC9
:100348008B42F9D3CCF80C55C0F80C450196019BAB
:100358009A420FD9019B01330193019B9342F9D330
:100368006FB9724512D802F5FA62C2F5C331002797
:10037800A031D9E7002FF4D01746002AD4D0A2F52F
:10038800FA62C2F5C3310127A031CDE70127CBE7D7
:1003980000030050A08601009F8601004FF08053A3
:1003A80010B4D3F83021082A20D04A4AD2F888302D
:1003B80043F47003C2F88830BFF34F8FBFF36F8FD9
:1003C8004FF08053D3F83021082A02D05DF8044B4F
:1003D8007047D3F83431042BF8D94FF010224FF07E
:1003E8008043D2F80822C3F85825EFE74FF0804140
:1003F8000020C1F80C01384AC1F81001C1F83805CD
:10040800D3F80404C2F82005D3F80804C2F8240578
:10041800D3F80C04C2F82805D3F81004C2F82C0548
:10042800D3F81404C2F83005D3F81804C2F8340518
:10043800D3F81C04C2F84005D3F82004C2F84405D8
:10044800D3F82404C2F84805D3F82804C2F84C05A8
:10045800D3F82C04C2F85005D3F83004C2F8540578
:10046800D3F83404C2F86005D3F83804C2F8640538
:10047800D3F83C04C2F86805D3F84004C2F86C0508
:10048800D3F83401D3F84444C2F8704550B14FF062
:100498008043D3F80024D20744BF6FF00102C3F8A9
:1004A800002482E70D480E4CC0F88C4602F54052F5
:1004B800FB20C2F81805D1F8E42ED3F858420948B1
:1004C800134664F303034FF40072C1F8E43EC0F826
:1004D8004026DCE700ED00E000C00040005000408E
:1004E80048810300009002400F49104A104B00F069
:1004F80010F81049104A114B00F00BF81049114A36
:10050800114B00F006F81149114A124B00F001F89E
:1005180006E0521A03DD043A98588850FBDC70470D
:10052800FFF73CFFFFF7B4FE0000002000000020AA
:1005380054080000000000200000002054080000BB
:1005480000000020000000205408000000000020E7
:100558000000002054080000FEE7FEE7FEE7FEE783
:10056800FEE7FEE7FEE7FEE7FEE7FEE7830730B5B6
:1005780047D0541E002A3ED0CAB2034601E0013CCF
:1005880039D303F8012B9D07F9D1032C2CD9CDB20F
:1005980005EB05250F2C05EB054535D9A4F110020F
:1005A80022F00F0C03F1100EE6444FEA121C1A4613
:1005B800C2E90055C2E9025510327245F8D10CF172
:1005C800010214F00C0F03EB021204F00F0C13D00D
:1005D800ACF1040323F003030433134442F8045B2F
:1005E8009342FBD10CF003042CB1C9B21C4403F8AC
:1005F800011BA342FBD130BD64461346002CF4D145
:10060800F9E703461446C0E71A46A446E0E700BFE8
:1006180070B50F4B0F4DAB42A3EB050607D0B610D4
:10062800002455F8043B01349847A642F9D800F055
:10063800D5F8094D094B5E1BAB424FEAA60606D01A
:10064800002455F8043B01349847A642F9D870BDF8
:10065800F0070000F0070000F0070000F8070000AE
:1006680008B50021044600F023F8034B1B6803B1CA
:100678009847204600F0B0F8E80200200023014621
:100688001A46184600F076B838B5074D074C2C1BAB
:10069800A41005D0013C55F8043D9847002CF9D129
:1006A800BDE8384000F0A4B80808000004080000BD
:1006B8002DE9F04F294F83B03E6801905EB38B4619
:1006C8004FF000094FF001087468651E23D4013407
:1006D80006EB8404BBF1000F20D173682268013B4C
:1006E800AB420CBF7560C4F800907AB1D6F8881197
:1006F800D6F804A008FA05FC1CEA010F1AD19047A5
:1007080071683A68514522D1B24220D1013D6B1C33
:10071800A4F10404DED103B0BDE8F08FD4F80031B1
:100728005B45DAD0013D6A1CA4F10404F6D103B09C
:10073800BDE8F08FD6F88C31D4F880101CEA030F8E
:1007480009D10198904771683A685145DCD0002A70
:10075800E1D01646B8E708469047D1E71C000020CC
:10076800024B13B10248FFF789BF70470000000031
:100778009106000070B4164D2C681CB365681F2DD7
:1007880023DC38B9AB1C0135656044F82310002020
:1007980070BC704704EB850C0228CCF88820D4F88C
:1007A80088614FF0010202FA05F246EA0206C4F82F
:1007B8008861CCF80831E5D1D4F88C311343C4F8FA
:1007C8008C31DFE7034C2C60D8E74FF0FF30DFE7D0
:1007D8001C00002020000020FEE700BFF8B500BF85
:1007E800F8BC08BC9E46704769070000710200000B
:1007F800F8B500BFF8BC08BC9E4670474902000027
:0408080000000000EC
:10080C005408000000000020000000005408000004
:10081C000000002000000000540800000000002030
:10082C000000000054080000000000200000000040
:10083C0000000020BB000000EC02002000000000C3
:08084C00EC0200200000000096
:04000003000004F104
:00000001FF
